{
  "contractName": "Vesting",
  "abi": [
    {
      "constant": true,
      "inputs": [
        {
          "name": "",
          "type": "address"
        }
      ],
      "name": "investors",
      "outputs": [
        {
          "name": "tokenAmount",
          "type": "uint256"
        },
        {
          "name": "frozenPeriod",
          "type": "uint256"
        },
        {
          "name": "isInvestor",
          "type": "bool"
        }
      ],
      "payable": false,
      "stateMutability": "view",
      "type": "function"
    },
    {
      "constant": true,
      "inputs": [],
      "name": "mycroToken",
      "outputs": [
        {
          "name": "",
          "type": "address"
        }
      ],
      "payable": false,
      "stateMutability": "view",
      "type": "function"
    },
    {
      "inputs": [
        {
          "name": "_token",
          "type": "address"
        }
      ],
      "payable": false,
      "stateMutability": "nonpayable",
      "type": "constructor"
    },
    {
      "anonymous": false,
      "inputs": [
        {
          "indexed": false,
          "name": "_investorAddress",
          "type": "address"
        },
        {
          "indexed": false,
          "name": "_tokenAmount",
          "type": "uint256"
        },
        {
          "indexed": false,
          "name": "_daysToFreeze",
          "type": "uint256"
        }
      ],
      "name": "LogFreezedTokensToInvestor",
      "type": "event"
    },
    {
      "anonymous": false,
      "inputs": [
        {
          "indexed": false,
          "name": "_investorAddress",
          "type": "address"
        },
        {
          "indexed": false,
          "name": "_tokenAmount",
          "type": "uint256"
        }
      ],
      "name": "LogUpdatedTokensToInvestor",
      "type": "event"
    },
    {
      "anonymous": false,
      "inputs": [
        {
          "indexed": false,
          "name": "_investorAddress",
          "type": "address"
        },
        {
          "indexed": false,
          "name": "_tokenAmount",
          "type": "uint256"
        }
      ],
      "name": "LogWithdraw",
      "type": "event"
    },
    {
      "constant": false,
      "inputs": [
        {
          "name": "_investorAddress",
          "type": "address"
        },
        {
          "name": "_tokenAmount",
          "type": "uint256"
        },
        {
          "name": "_daysToFreeze",
          "type": "uint256"
        }
      ],
      "name": "freezeTokensToInvestor",
      "outputs": [
        {
          "name": "",
          "type": "bool"
        }
      ],
      "payable": false,
      "stateMutability": "nonpayable",
      "type": "function"
    },
    {
      "constant": false,
      "inputs": [
        {
          "name": "_investorAddress",
          "type": "address"
        },
        {
          "name": "_tokenAmount",
          "type": "uint256"
        }
      ],
      "name": "updateTokensToInvestor",
      "outputs": [
        {
          "name": "",
          "type": "bool"
        }
      ],
      "payable": false,
      "stateMutability": "nonpayable",
      "type": "function"
    },
    {
      "constant": false,
      "inputs": [
        {
          "name": "_tokenAmount",
          "type": "uint256"
        }
      ],
      "name": "withdraw",
      "outputs": [],
      "payable": false,
      "stateMutability": "nonpayable",
      "type": "function"
    }
  ],
  "bytecode": "0x608060405234801561001057600080fd5b50604051602080610811833981016040525160008054600160a060020a03909216600160a060020a03199092169190911790556107bf806100526000396000f30060806040526004361061006c5763ffffffff7c01000000000000000000000000000000000000000000000000000000006000350416632e1a7d4d81146100715780636f7bc9be1461008b57806377148d94146100cc5780638c99d363146100fd5780639911ec1e14610135575b600080fd5b34801561007d57600080fd5b5061008960043561015c565b005b34801561009757600080fd5b506100ac600160a060020a03600435166102a3565b604080519384526020840192909252151582820152519081900360600190f35b3480156100d857600080fd5b506100e16102c6565b60408051600160a060020a039092168252519081900360200190f35b34801561010957600080fd5b50610121600160a060020a03600435166024356102d5565b604080519115158252519081900360200190f35b34801561014157600080fd5b50610121600160a060020a0360043516602435604435610424565b336000818152600160205260409020600281015460ff16151561017e57600080fd5b600181015442101561018f57600080fd5b805483111561019d57600080fd5b80546101af908463ffffffff6105e216565b815560008054604080517fa9059cbb000000000000000000000000000000000000000000000000000000008152600160a060020a038681166004830152602482018890529151919092169263a9059cbb92604480820193602093909283900390910190829087803b15801561022357600080fd5b505af1158015610237573d6000803e3d6000fd5b505050506040513d602081101561024d57600080fd5b5051151561025a57600080fd5b60408051600160a060020a03841681526020810185905281517f4ce7033d118120e254016dccf195288400b28fc8936425acd5f17ce2df3ab708929181900390910190a1505050565b600160208190526000918252604090912080549181015460029091015460ff1683565b600054600160a060020a031681565b600160a060020a038216600090815260016020526040812060020154819060ff16151561030157600080fd5b50600160a060020a0383166000908152600160205260409020805461032c908463ffffffff61066216565b815560008054604080517f23b872dd000000000000000000000000000000000000000000000000000000008152336004820152306024820152604481018790529051600160a060020a03909216926323b872dd926064808401936020939083900390910190829087803b1580156103a257600080fd5b505af11580156103b6573d6000803e3d6000fd5b505050506040513d60208110156103cc57600080fd5b505115156103d957600080fd5b60408051600160a060020a03861681526020810185905281517fe582fac5c2f8474711367b4f73381de918a4f1edbae3e20ab8774c0f277b520a929181900390910190a15092915050565b6000600160a060020a038416151561043b57600080fd5b82151561044757600080fd5b600160a060020a03841660009081526001602052604090206002015460ff161561047057600080fd5b610483826201518063ffffffff6106dd16565b6040805160608101909152848152909250602081016104a8428563ffffffff61066216565b815260016020918201819052600160a060020a0387811660009081528284526040808220865181558686015194810194909455948501516002909301805460ff191693151593909317909255815484517f23b872dd0000000000000000000000000000000000000000000000000000000081523360048201523060248201526044810189905294519116936323b872dd936064808301949193928390030190829087803b15801561055857600080fd5b505af115801561056c573d6000803e3d6000fd5b505050506040513d602081101561058257600080fd5b5051151561058f57600080fd5b60408051600160a060020a03861681526020810185905280820184905290517f383e7a72d0cf29780ba6b93779e4ec1cb328e33466197f36dae2003d3364b5c19181900360600190a15060019392505050565b6000808383111561065457604080517f08c379a000000000000000000000000000000000000000000000000000000000815260206004820152601e60248201527f536166654d6174683a207375627472616374696f6e206f766572666c6f770000604482015290519081900360640190fd5b5050808203805b5092915050565b6000828201838110156106d657604080517f08c379a000000000000000000000000000000000000000000000000000000000815260206004820152601b60248201527f536166654d6174683a206164646974696f6e206f766572666c6f770000000000604482015290519081900360640190fd5b9392505050565b6000808315156106f0576000915061065b565b5082820282848281151561070057fe5b04146106d657604080517f08c379a000000000000000000000000000000000000000000000000000000000815260206004820152602160248201527f536166654d6174683a206d756c7469706c69636174696f6e206f766572666c6f60448201527f7700000000000000000000000000000000000000000000000000000000000000606482015290519081900360840190fd00a165627a7a72305820dd291b6bff37db1d4135f0434098587a94f893c3c4f41792f5e85d080fed694f0029",
  "source": "pragma solidity 0.4.24;\n\nimport \"./ERC20.sol\";\n\ncontract Vesting {\n\n    using SafeMath for uint256;\n\n    ERC20 public mycroToken;\n\n    event LogFreezedTokensToInvestor(address _investorAddress, uint256 _tokenAmount, uint256 _daysToFreeze);\n    event LogUpdatedTokensToInvestor(address _investorAddress, uint256 _tokenAmount);\n    event LogWithdraw(address _investorAddress, uint256 _tokenAmount);\n\n    constructor(address _token) public {\n        mycroToken = ERC20(_token);\n    }\n\n    mapping (address => Investor) public investors;\n\n    struct Investor {\n        uint256 tokenAmount;\n        uint256 frozenPeriod;\n        bool isInvestor;\n    }\n\n\n    /**\n        @param _investorAddress the address of the investor\n        @param _tokenAmount the amount of tokens an investor will receive\n        @param _daysToFreeze the number of the days token would be freezed to withrow, e.c. 3 => 3 days\n     */\n    function freezeTokensToInvestor(address _investorAddress, uint256 _tokenAmount, uint256 _daysToFreeze) public returns (bool) {\n        require(_investorAddress != address(0));\n        require(_tokenAmount != 0);\n        require(!investors[_investorAddress].isInvestor);\n\n        _daysToFreeze = _daysToFreeze.mul(1 days); // converts days into seconds\n        \n        investors[_investorAddress] = Investor({tokenAmount: _tokenAmount, frozenPeriod: now.add(_daysToFreeze), isInvestor: true});\n        \n        require(mycroToken.transferFrom(msg.sender, address(this), _tokenAmount));\n        emit LogFreezedTokensToInvestor(_investorAddress, _tokenAmount, _daysToFreeze);\n\n        return true;\n    }\n\n     function updateTokensToInvestor(address _investorAddress, uint256 _tokenAmount) public returns(bool) {\n        require(investors[_investorAddress].isInvestor);\n        Investor storage currentInvestor = investors[_investorAddress];\n        currentInvestor.tokenAmount = currentInvestor.tokenAmount.add(_tokenAmount);\n\n        require(mycroToken.transferFrom(msg.sender, address(this), _tokenAmount));\n        emit LogUpdatedTokensToInvestor(_investorAddress, _tokenAmount);\n    }\n\n    function withdraw(uint256 _tokenAmount) public {\n        address investorAddress = msg.sender;\n        Investor storage currentInvestor = investors[investorAddress];\n        \n        require(currentInvestor.isInvestor);\n        require(now >= currentInvestor.frozenPeriod);\n        require(_tokenAmount <= currentInvestor.tokenAmount);\n\n        currentInvestor.tokenAmount = currentInvestor.tokenAmount.sub(_tokenAmount);\n        require(mycroToken.transfer(investorAddress, _tokenAmount));\n        emit LogWithdraw(investorAddress, _tokenAmount);\n    }\n\n\n\n}",
  "sourcePath": "/home/abhi/Projects/MycroVesting/contracts/Vesting.sol",
  "compiler": {
    "name": "solc",
    "version": "0.4.24+commit.e67f0147.Emscripten.clang"
  },
  "schemaVersion": "2.0.1",
  "updatedAt": "2019-07-05T07:41:09.971Z"
}